{
  "transactions": [
    {
      "hash": "0xa12af3a15eff11ccef37c9f681e83d4d591320946c03d8b98bb5ab1f3c791ee1",
      "transactionType": "CALL",
      "contractName": null,
      "contractAddress": "0x79a02482a880bce3f13e09da970dc34db4cd24d1",
      "function": "approve(address,uint256)",
      "arguments": [
        "0xE54206eCc0315fefB9C4F111Ca8E64514d7a8E64",
        "1000000"
      ],
      "transaction": {
        "from": "0xa7614886befca78881fd0c37546e18dc036693cb",
        "to": "0x79a02482a880bce3f13e09da970dc34db4cd24d1",
        "gas": "0x12b1b",
        "value": "0x0",
        "input": "0x095ea7b3000000000000000000000000e54206ecc0315fefb9c4f111ca8e64514d7a8e6400000000000000000000000000000000000000000000000000000000000f4240",
        "nonce": "0x4",
        "chainId": "0x1e0"
      },
      "additionalContracts": [],
      "isFixedGasLimit": false
    },
    {
      "hash": "0xb10633d3808a1669f5eb88a8cb196343948abb45f343d8c4a94cca9a33dc0100",
      "transactionType": "CALL",
      "contractName": null,
      "contractAddress": "0xe54206ecc0315fefb9c4f111ca8e64514d7a8e64",
      "function": "createGame(uint256,uint256,uint16,uint256,uint256)",
      "arguments": [
        "1000000",
        "5000000000",
        "2",
        "1775302209",
        "1775388609"
      ],
      "transaction": {
        "from": "0xa7614886befca78881fd0c37546e18dc036693cb",
        "to": "0xe54206ecc0315fefb9c4f111ca8e64514d7a8e64",
        "gas": "0x70040",
        "value": "0x0",
        "input": "0x1f30385800000000000000000000000000000000000000000000000000000000000f4240000000000000000000000000000000000000000000000000000000012a05f20000000000000000000000000000000000000000000000000000000000000000020000000000000000000000000000000000000000000000000000000069d0f6410000000000000000000000000000000000000000000000000000000069d247c1",
        "nonce": "0x5",
        "chainId": "0x1e0"
      },
      "additionalContracts": [],
      "isFixedGasLimit": false
    },
    {
      "hash": "0x8a4e12c575ba537fb7a285f3cc2e46fc8dabc63ede6465eeccb3d8443ecb7fac",
      "transactionType": "CALL",
      "contractName": null,
      "contractAddress": "0x79a02482a880bce3f13e09da970dc34db4cd24d1",
      "function": "approve(address,uint256)",
      "arguments": [
        "0xE54206eCc0315fefB9C4F111Ca8E64514d7a8E64",
        "1000000"
      ],
      "transaction": {
        "from": "0x6932958fd326c41b28748caeb8689e2dbfa8f8d2",
        "to": "0x79a02482a880bce3f13e09da970dc34db4cd24d1",
        "gas": "0x12b1b",
        "value": "0x0",
        "input": "0x095ea7b3000000000000000000000000e54206ecc0315fefb9c4f111ca8e64514d7a8e6400000000000000000000000000000000000000000000000000000000000f4240",
        "nonce": "0x0",
        "chainId": "0x1e0"
      },
      "additionalContracts": [],
      "isFixedGasLimit": false
    },
    {
      "hash": "0xdb173fccebfb89e6a8da929cbc95933053f5a4821c819cbb11ff75d5a6a0d37f",
      "transactionType": "CALL",
      "contractName": null,
      "contractAddress": "0xe54206ecc0315fefb9c4f111ca8e64514d7a8e64",
      "function": "joinGame(uint256)",
      "arguments": [
        "1"
      ],
      "transaction": {
        "from": "0x6932958fd326c41b28748caeb8689e2dbfa8f8d2",
        "to": "0xe54206ecc0315fefb9c4f111ca8e64514d7a8e64",
        "gas": "0x335c1",
        "value": "0x0",
        "input": "0xefaa55a00000000000000000000000000000000000000000000000000000000000000001",
        "nonce": "0x1",
        "chainId": "0x1e0"
      },
      "additionalContracts": [],
      "isFixedGasLimit": false
    }
  ],
  "receipts": [
    {
      "status": "0x1",
      "cumulativeGasUsed": "0xd88d",
      "logs": [
        {
          "address": "0x79a02482a880bce3f13e09da970dc34db4cd24d1",
          "topics": [
            "0x8c5be1e5ebec7d5bd14f71427d1e84f3dd0314c0f7b2291e5b200ac8c7c3b925",
            "0x000000000000000000000000a7614886befca78881fd0c37546e18dc036693cb",
            "0x000000000000000000000000e54206ecc0315fefb9c4f111ca8e64514d7a8e64"
          ],
          "data": "0x00000000000000000000000000000000000000000000000000000000000f4240",
          "blockHash": "0x5601978c89919ca6bf0eaffc971384656186b30b3f98587001b3d63e0cd1d637",
          "blockNumber": "0x1aafd1f",
          "blockTimestamp": "0x69d0f52c",
          "transactionHash": "0xa12af3a15eff11ccef37c9f681e83d4d591320946c03d8b98bb5ab1f3c791ee1",
          "transactionIndex": "0x0",
          "logIndex": "0x0",
          "removed": false
        }
      ],
      "logsBloom": "0x00000000000000000000000000000000000000000000000000000000000000000000000000000000000000000000000000000000000000000000000000200000000000000000000000000000000000000000000000000400000000000000000000000000000000000000000000000000000000000000000000000000000000000000000000000000000000000000004000000000000000000000000000000000020000000000000000000000000000000004100000000000000000000000000000000000000000000000000000000000000000000000000000004000000000000010000000010000000000000000004000000000000040000080000000000000",
      "type": "0x2",
      "transactionHash": "0xa12af3a15eff11ccef37c9f681e83d4d591320946c03d8b98bb5ab1f3c791ee1",
      "transactionIndex": "0x0",
      "blockHash": "0x5601978c89919ca6bf0eaffc971384656186b30b3f98587001b3d63e0cd1d637",
      "blockNumber": "0x1aafd1f",
      "gasUsed": "0xd88d",
      "effectiveGasPrice": "0x18764",
      "blobGasPrice": "0x1",
      "from": "0xa7614886befca78881fd0c37546e18dc036693cb",
      "to": "0x79a02482a880bce3f13e09da970dc34db4cd24d1",
      "contractAddress": null
    },
    {
      "status": "0x1",
      "cumulativeGasUsed": "0x4c979",
      "logs": [
        {
          "address": "0xe54206ecc0315fefb9c4f111ca8e64514d7a8e64",
          "topics": [
            "0x1fb8c81a77ff21ab1560d4e1c2ef431e767881054bb7a1375ea347ac3eacc381",
            "0x0000000000000000000000000000000000000000000000000000000000000001",
            "0x000000000000000000000000a7614886befca78881fd0c37546e18dc036693cb"
          ],
          "data": "0x00000000000000000000000000000000000000000000000000000000000f424000000000000000000000000000000000000000000000000000000000000000020000000000000000000000000000000000000000000000000000000069d0f6410000000000000000000000000000000000000000000000000000000069d247c1",
          "blockHash": "0x10b4d2fb535361312c579880f8bb94df4d3e2355688917dd5645e3adcd6a3610",
          "blockNumber": "0x1aafd20",
          "blockTimestamp": "0x69d0f52c",
          "transactionHash": "0xb10633d3808a1669f5eb88a8cb196343948abb45f343d8c4a94cca9a33dc0100",
          "transactionIndex": "0x0",
          "logIndex": "0x0",
          "removed": false
        },
        {
          "address": "0x79a02482a880bce3f13e09da970dc34db4cd24d1",
          "topics": [
            "0xddf252ad1be2c89b69c2b068fc378daa952ba7f163c4a11628f55a4df523b3ef",
            "0x000000000000000000000000a7614886befca78881fd0c37546e18dc036693cb",
            "0x000000000000000000000000e54206ecc0315fefb9c4f111ca8e64514d7a8e64"
          ],
          "data": "0x00000000000000000000000000000000000000000000000000000000000f4240",
          "blockHash": "0x10b4d2fb535361312c579880f8bb94df4d3e2355688917dd5645e3adcd6a3610",
          "blockNumber": "0x1aafd20",
          "blockTimestamp": "0x69d0f52c",
          "transactionHash": "0xb10633d3808a1669f5eb88a8cb196343948abb45f343d8c4a94cca9a33dc0100",
          "transactionIndex": "0x0",
          "logIndex": "0x1",
          "removed": false
        },
        {
          "address": "0xe54206ecc0315fefb9c4f111ca8e64514d7a8e64",
          "topics": [
            "0x9d735d1584e6ebd0c84898edd9f47bc5c56bde317b4cddc437926def6a835a61",
            "0x0000000000000000000000000000000000000000000000000000000000000001",
            "0x000000000000000000000000a7614886befca78881fd0c37546e18dc036693cb"
          ],
          "data": "0x0000000000000000000000000000000000000000000000000000000000000001",
          "blockHash": "0x10b4d2fb535361312c579880f8bb94df4d3e2355688917dd5645e3adcd6a3610",
          "blockNumber": "0x1aafd20",
          "blockTimestamp": "0x69d0f52c",
          "transactionHash": "0xb10633d3808a1669f5eb88a8cb196343948abb45f343d8c4a94cca9a33dc0100",
          "transactionIndex": "0x0",
          "logIndex": "0x2",
          "removed": false
        }
      ],
      "logsBloom": "0x00000000000100000000000000000000000000000000000000000000000000000000000000000000000000000000000000000000000000000000000000040000000280000000000000000008000000000000000000040440000000000000000000000000000000000000000000000000000000000000000000000010200000000000000000000000000000000000004000000000000000000000000000000000000000000000000000000000000000000004100000000000000000000000000000000002000000000000000000000000000000000000000000004000000040000000000004010000000004020000004000000000000040000080000000000000",
      "type": "0x2",
      "transactionHash": "0xb10633d3808a1669f5eb88a8cb196343948abb45f343d8c4a94cca9a33dc0100",
      "transactionIndex": "0x0",
      "blockHash": "0x10b4d2fb535361312c579880f8bb94df4d3e2355688917dd5645e3adcd6a3610",
      "blockNumber": "0x1aafd20",
      "gasUsed": "0x4c979",
      "effectiveGasPrice": "0x1874c",
      "blobGasPrice": "0x1",
      "from": "0xa7614886befca78881fd0c37546e18dc036693cb",
      "to": "0xe54206ecc0315fefb9c4f111ca8e64514d7a8e64",
      "contractAddress": null
    },
    {
      "status": "0x1",
      "cumulativeGasUsed": "0xd88d",
      "logs": [
        {
          "address": "0x79a02482a880bce3f13e09da970dc34db4cd24d1",
          "topics": [
            "0x8c5be1e5ebec7d5bd14f71427d1e84f3dd0314c0f7b2291e5b200ac8c7c3b925",
            "0x0000000000000000000000006932958fd326c41b28748caeb8689e2dbfa8f8d2",
            "0x000000000000000000000000e54206ecc0315fefb9c4f111ca8e64514d7a8e64"
          ],
          "data": "0x00000000000000000000000000000000000000000000000000000000000f4240",
          "blockHash": "0x3345db8e39a1b18e871c802bc8787dc5dd282b435c37f95d5613a95d6b349423",
          "blockNumber": "0x1aafd21",
          "blockTimestamp": "0x69d0f52c",
          "transactionHash": "0x8a4e12c575ba537fb7a285f3cc2e46fc8dabc63ede6465eeccb3d8443ecb7fac",
          "transactionIndex": "0x0",
          "logIndex": "0x0",
          "removed": false
        }
      ],
      "logsBloom": "0x00000000100000000000000000000000000000000000000000000000000000000000000000000000000000000000000100000000000100000000000000200000000000000000000000000000000000000000000000000000000000000000000000000000000000000000000000000000000000000000000000000000000000000000000000000000000000000000004000000000000000000000000000000000020000000000000000000000000000000004000000000000000000000000000000000000000000000000000000000000000000000000000000004000000000000010000000010000000000000000000000000000000040000080000000000000",
      "type": "0x2",
      "transactionHash": "0x8a4e12c575ba537fb7a285f3cc2e46fc8dabc63ede6465eeccb3d8443ecb7fac",
      "transactionIndex": "0x0",
      "blockHash": "0x3345db8e39a1b18e871c802bc8787dc5dd282b435c37f95d5613a95d6b349423",
      "blockNumber": "0x1aafd21",
      "gasUsed": "0xd88d",
      "effectiveGasPrice": "0x18737",
      "blobGasPrice": "0x1",
      "from": "0x6932958fd326c41b28748caeb8689e2dbfa8f8d2",
      "to": "0x79a02482a880bce3f13e09da970dc34db4cd24d1",
      "contractAddress": null
    },
    {
      "status": "0x1",
      "cumulativeGasUsed": "0x231e3",
      "logs": [
        {
          "address": "0x79a02482a880bce3f13e09da970dc34db4cd24d1",
          "topics": [
            "0xddf252ad1be2c89b69c2b068fc378daa952ba7f163c4a11628f55a4df523b3ef",
            "0x0000000000000000000000006932958fd326c41b28748caeb8689e2dbfa8f8d2",
            "0x000000000000000000000000e54206ecc0315fefb9c4f111ca8e64514d7a8e64"
          ],
          "data": "0x00000000000000000000000000000000000000000000000000000000000f4240",
          "blockHash": "0x1774c43c186acf3a3fc62800288551401cafa8bad0862d994879237a62a50bb5",
          "blockNumber": "0x1aafd22",
          "blockTimestamp": "0x69d0f52c",
          "transactionHash": "0xdb173fccebfb89e6a8da929cbc95933053f5a4821c819cbb11ff75d5a6a0d37f",
          "transactionIndex": "0x0",
          "logIndex": "0x0",
          "removed": false
        },
        {
          "address": "0xe54206ecc0315fefb9c4f111ca8e64514d7a8e64",
          "topics": [
            "0x9d735d1584e6ebd0c84898edd9f47bc5c56bde317b4cddc437926def6a835a61",
            "0x0000000000000000000000000000000000000000000000000000000000000001",
            "0x0000000000000000000000006932958fd326c41b28748caeb8689e2dbfa8f8d2"
          ],
          "data": "0x0000000000000000000000000000000000000000000000000000000000000002",
          "blockHash": "0x1774c43c186acf3a3fc62800288551401cafa8bad0862d994879237a62a50bb5",
          "blockNumber": "0x1aafd22",
          "blockTimestamp": "0x69d0f52c",
          "transactionHash": "0xdb173fccebfb89e6a8da929cbc95933053f5a4821c819cbb11ff75d5a6a0d37f",
          "transactionIndex": "0x0",
          "logIndex": "0x1",
          "removed": false
        }
      ],
      "logsBloom": "0x00000000100000000000000000000000000000000000000000000000000000000000000000000000000000000000000100000000000100000000000000040000000200000000000000000008000000000000000000040040000000000000000000000000000000000000000000000000000000000000000000000010200000000000000000000000000000000000004000000000000000000000000000000000000000000000000000000000000000000004000000000000000000000000000000000002000000000000000000000000000000000000000000004000000040000000000004010000000004020000000000000000000040000080000000000000",
      "type": "0x2",
      "transactionHash": "0xdb173fccebfb89e6a8da929cbc95933053f5a4821c819cbb11ff75d5a6a0d37f",
      "transactionIndex": "0x0",
      "blockHash": "0x1774c43c186acf3a3fc62800288551401cafa8bad0862d994879237a62a50bb5",
      "blockNumber": "0x1aafd22",
      "gasUsed": "0x231e3",
      "effectiveGasPrice": "0x18725",
      "blobGasPrice": "0x1",
      "from": "0x6932958fd326c41b28748caeb8689e2dbfa8f8d2",
      "to": "0xe54206ecc0315fefb9c4f111ca8e64514d7a8e64",
      "contractAddress": null
    }
  ],
  "libraries": [],
  "pending": [],
  "returns": {},
  "timestamp": 1775301934496,
  "chain": 480,
  "commit": "8a829ad"
}