{
  "transactions": [
    {
      "hash": "0xa44c23122201ce82b92d6f03ccea3ce6fa053ffa427695cae790fbb95c5392d9",
      "transactionType": "CALL",
      "contractName": null,
      "contractAddress": "0xe54206ecc0315fefb9c4f111ca8e64514d7a8e64",
      "function": "submitTrade(uint256,string,uint8,bool,uint256,(uint256,uint256,uint64,uint256,uint256,uint64,uint64,uint256,uint256[5]))",
      "arguments": [
        "1",
        "34q2KmCvapecJgR6ZrtbCTrzZVtkt3a5mHEA3TuEsWYb",
        "0",
        "true",
        "100000000",
        "(1, 1, 1, 1, 1, 999999, 1, 1, [0, 0, 0, 0, 0])"
      ],
      "transaction": {
        "from": "0xa7614886befca78881fd0c37546e18dc036693cb",
        "to": "0xe54206ecc0315fefb9c4f111ca8e64514d7a8e64",
        "gas": "0x54311",
        "value": "0x0",
        "input": "0x09f25c6800000000000000000000000000000000000000000000000000000000000000010000000000000000000000000000000000000000000000000000000000000240000000000000000000000000000000000000000000000000000000000000000000000000000000000000000000000000000000000000000000000000000000010000000000000000000000000000000000000000000000000000000005f5e1000000000000000000000000000000000000000000000000000000000000000001000000000000000000000000000000000000000000000000000000000000000100000000000000000000000000000000000000000000000000000000000000010000000000000000000000000000000000000000000000000000000000000001000000000000000000000000000000000000000000000000000000000000000100000000000000000000000000000000000000000000000000000000000f423f0000000000000000000000000000000000000000000000000000000000000001000000000000000000000000000000000000000000000000000000000000000100000000000000000000000000000000000000000000000000000000000000000000000000000000000000000000000000000000000000000000000000000000000000000000000000000000000000000000000000000000000000000000000000000000000000000000000000000000000000000000000000000000000000000000000000000000000000000000000000000000000000000000000000000000000000000000000000000000000000000000000000000000000000000000002c333471324b6d4376617065634a6752365a7274624354727a5a56746b743361356d48454133547545735759620000000000000000000000000000000000000000",
        "nonce": "0x7",
        "chainId": "0x1e0"
      },
      "additionalContracts": [],
      "isFixedGasLimit": false
    }
  ],
  "receipts": [
    {
      "status": "0x1",
      "cumulativeGasUsed": "0x39913",
      "logs": [
        {
          "address": "0xe54206ecc0315fefb9c4f111ca8e64514d7a8e64",
          "topics": [
            "0x58e0acce266b08e1eecf681087ad8b3f35bf8717d638580589d39d6a55fd786c",
            "0x0000000000000000000000000000000000000000000000000000000000000002",
            "0x0000000000000000000000000000000000000000000000000000000000000001"
          ],
          "data": "0x0000000000000000000000000000000000000000000000000000000000000080000000000000000000000000000000000000000000000000000000000000000000000000000000000000000000000000000000000000000000000000000000010000000000000000000000000000000000000000000000000000000005f5e100000000000000000000000000000000000000000000000000000000000000002c333471324b6d4376617065634a6752365a7274624354727a5a56746b743361356d48454133547545735759620000000000000000000000000000000000000000",
          "blockHash": "0xead7b434506a59f0756aaf3c3a6f2144767b1baa17704a141f00e0a1896396c9",
          "blockNumber": "0x1aafd25",
          "blockTimestamp": "0x69d0f9ee",
          "transactionHash": "0xa44c23122201ce82b92d6f03ccea3ce6fa053ffa427695cae790fbb95c5392d9",
          "transactionIndex": "0x0",
          "logIndex": "0x0",
          "removed": false
        }
      ],
      "logsBloom": "0x04000000000000000000000000000000000000000000000000000000000000000000000000000000000000000000000000000000000000000000000000040000000200000000000000000000000000000000000000040000000000000000000000000000000000000000000000000000000000000000000000000000200000000000040000000000000000000000000000000000000000000000000000000000000000000000000000000100000000000000000000000000000000000000000000000000000000000040000000000000000000000000000000000000000040000000000000000000000000020000200000000000008000000000000000000000",
      "type": "0x2",
      "transactionHash": "0xa44c23122201ce82b92d6f03ccea3ce6fa053ffa427695cae790fbb95c5392d9",
      "transactionIndex": "0x0",
      "blockHash": "0xead7b434506a59f0756aaf3c3a6f2144767b1baa17704a141f00e0a1896396c9",
      "blockNumber": "0x1aafd25",
      "gasUsed": "0x39913",
      "effectiveGasPrice": "0x186fb",
      "blobGasPrice": "0x1",
      "from": "0xa7614886befca78881fd0c37546e18dc036693cb",
      "to": "0xe54206ecc0315fefb9c4f111ca8e64514d7a8e64",
      "contractAddress": null
    }
  ],
  "libraries": [],
  "pending": [],
  "returns": {},
  "timestamp": 1775302852519,
  "chain": 480,
  "commit": "7566a6c"
}